:100000000C943E000C9448000C9448000C9448005A
:100010000C9448000C9448000C9448000C94480040
:100020000C9448000C9448000C9448000C94480030
:100030000C9448000C9448000C9448000C94480020
:100040000C9448000C9448000C9448000C94480010
:100050000C9448000C9448000C9448000C94480000
:100060000C9448000C9448000C9448000C944800F0
:100070000C9448000C9448000C94480011241FBEB6
:10008000CFEFD8E0DEBFCDBF0E944A000C946300E2
:100090000C9400008FEF81B984B987B98AB980E0E8
:1000A00090E0DC0125E50196A11DB11D8BB9492F1A
:1000B0005A2F6B2F772748B925B94B2F552766271D
:0A00C000772742B9F0CFF894FFCF84
:00000001FF
