:100000000C943E000C9448000C9448000C9448005A
:100010000C9448000C9448000C9448000C94480040
:100020000C9448000C9448000C9448000C94480030
:100030000C9448000C9448000C9448000C94480020
:100040000C9448000C9448000C9448000C94480010
:100050000C9448000C9448000C9448000C94480000
:100060000C9448000C9448000C9448000C944800F0
:100070000C9448000C9448000C94480011241FBEB6
:10008000CFEFD8E0DEBFCDBF0E9462000C94A0008D
:100090000C940000FC014A9B0FC08081918182304A
:1000A000910518F401969183808380819181029754
:1000B00041F4FB01108208951182108281E0FB015E
:1000C00080830895CF93DF9300D01F92CDB7DEB722
:1000D0008FEF81B984B987B91AB81A8219821B8245
:1000E000C12CD12C760112E001E08FEFC81AD80A9A
:1000F000E80AF80ACBB8BB27AF2D9E2D8D2D88B905
:10010000BE016D5F7F4FCE0101960E944A008B8138
:100110008823A1F015B987EA91E60197F1F700C0AD
:10012000000005B983EC99E00197F1F700C00000E9
:100130008F2D9927AA27BB2782B9D7CF15B8F8CF1B
:04014000F894FFCF61
:00000001FF
