:100000000C943E000C9448000C9448000C9448005A
:100010000C9448000C9448000C9448000C94480040
:100020000C9448000C9448000C9448000C94480030
:100030000C9448000C9448000C9448000C94480020
:100040000C9448000C9448000C9448000C94480010
:100050000C9448000C9448000C9448000C94480000
:100060000C9448000C9448000C9448000C944800F0
:100070000C9448000C9448000C94480011241FBEB6
:10008000CFEFD8E0DEBFCDBF0E944A000C948A00BB
:100090000C9400008FEF81B984B987B98AB980E0E8
:1000A00090E0DC0151E042E00196A11DB11D8BB949
:1000B000092F1A2F2B2F332708B955B92FEE3CE9FA
:1000C00069E0215030406040E1F700C000002EE1BF
:1000D00030E045B9E7EAF1E63197F1F700C00000FA
:1000E00055B9E3ECF9E03197F1F700C00000215079
:1000F000310979F745B9FFEE2CE939E0F15020409C
:100100003040E1F700C000000B2F112722273327D2
:0801100002B9CACFF894FFCF39
:00000001FF
